:020000020000FC
:040000000C942E002E
:10002C000C9418000F930FB70F937A9533950F918B
:10003C000FBF0F913A3209F0189530E2439518959D
:10004C00C0E0BCE0A0E8A150B040C040E0F708958B
:10005C000FEF0DBF08E00EBF04EF0093890004E220
:10006C000093880000E0009380000CE00093810076
:10007C0000916F00026000936F0030E240E10FEFDF
:10008C000AB90FE304B9789476E130E240E15FE01D
:10009C005BB935B9D5DF45B9D3DF703009F0F7CF8F
:1000AC0074E030E240E15EE05BB935B9C9DF45B9D7
:1000BC00C7DF703009F0F7CF73E330E240E15CEC5E
:1000CC005BB935B9BDDF45B9BBDF703009F0F7CF8F
:1000DC0074E030E240E154E45BB935B9B1DF45B9C5
:1000EC00AFDF703009F0F7CF79E130E240E150E357
:1000FC005BB935B9A5DF45B9A3DF703009F0F7CF8F
:10010C0074E030E240E150E15BB935B999DF45B9B3
:10011C0097DF703009F0F7CF7FE130E240E150E03B
:10012C005BB935B98DDF45B98BDF703009F0F7CF8E
:02013C00ABCF47
:00000001FF
