:020000020000FC
:040000000C942E002E
:10002C000C9418009F939FB79F937A9533959F914B
:10003C009FBF9F913A3209F0189530E2439518957D
:10004C00C0E0BCE0A0E8A150B040C040E0F708958B
:10005C009FEF9DBF98E09EBF94EF9093890094E230
:10006C009093880090E0909380009CE090938100A6
:10007C0090916F00926090936F0030E240E10FEF2F
:10008C000AB90FE304B9789476E15FE05BB935B94E
:10009C00D7DF45B9D5DF703009F0F7CF74E030E227
:1000AC0040E15EE05BB935B9CBDF45B9C9DF7030F3
:1000BC0009F0F7CF73E330E240E15CEC5BB935B9A2
:1000CC00BFDF45B9BDDF703009F0F7CF74E030E227
:1000DC0040E154E45BB935B9B3DF45B9B1DF7030F9
:1000EC0009F0F7CF79E130E240E150E35BB935B983
:1000FC00A7DF45B9A5DF703009F0F7CF74E030E227
:10010C0040E150E15BB935B99BDF45B999DF7030FF
:10011C0009F0F7CF7FE130E240E150E05BB935B94F
:0E012C008FDF45B98DDF703009F0F7CFADCF12
:00000001FF
